{
  "_format": "hh-sol-artifact-1",
  "contractName": "RealEstateContract",
  "sourceName": "contracts/RealEstate.sol",
  "abi": [
    {
      "inputs": [],
      "stateMutability": "nonpayable",
      "type": "constructor"
    },
    {
      "anonymous": false,
      "inputs": [
        {
          "indexed": false,
          "internalType": "uint256",
          "name": "propertyId",
          "type": "uint256"
        },
        {
          "indexed": false,
          "internalType": "address",
          "name": "buyer",
          "type": "address"
        },
        {
          "indexed": false,
          "internalType": "uint256",
          "name": "amount",
          "type": "uint256"
        }
      ],
      "name": "EscrowCancelled",
      "type": "event"
    },
    {
      "anonymous": false,
      "inputs": [
        {
          "indexed": false,
          "internalType": "uint256",
          "name": "escrowId",
          "type": "uint256"
        },
        {
          "indexed": false,
          "internalType": "address",
          "name": "buyer",
          "type": "address"
        },
        {
          "indexed": false,
          "internalType": "uint256",
          "name": "propertyId",
          "type": "uint256"
        },
        {
          "indexed": false,
          "internalType": "uint256",
          "name": "amount",
          "type": "uint256"
        }
      ],
      "name": "EscrowCreated",
      "type": "event"
    },
    {
      "anonymous": false,
      "inputs": [
        {
          "indexed": false,
          "internalType": "uint256",
          "name": "escrowId",
          "type": "uint256"
        },
        {
          "indexed": false,
          "internalType": "uint256",
          "name": "propertyId",
          "type": "uint256"
        },
        {
          "indexed": true,
          "internalType": "address",
          "name": "buyer",
          "type": "address"
        },
        {
          "indexed": false,
          "internalType": "uint256",
          "name": "amount",
          "type": "uint256"
        }
      ],
      "name": "EscrowReleased",
      "type": "event"
    },
    {
      "anonymous": false,
      "inputs": [
        {
          "indexed": true,
          "internalType": "address",
          "name": "previousOwner",
          "type": "address"
        },
        {
          "indexed": true,
          "internalType": "address",
          "name": "newOwner",
          "type": "address"
        }
      ],
      "name": "OwnershipTransferred",
      "type": "event"
    },
    {
      "anonymous": false,
      "inputs": [
        {
          "indexed": false,
          "internalType": "address",
          "name": "account",
          "type": "address"
        }
      ],
      "name": "Paused",
      "type": "event"
    },
    {
      "anonymous": false,
      "inputs": [
        {
          "indexed": false,
          "internalType": "uint256",
          "name": "propertyId",
          "type": "uint256"
        },
        {
          "indexed": false,
          "internalType": "uint256",
          "name": "pricePerToken",
          "type": "uint256"
        }
      ],
      "name": "PropertyListedForSale",
      "type": "event"
    },
    {
      "anonymous": false,
      "inputs": [
        {
          "indexed": false,
          "internalType": "uint256",
          "name": "propertyId",
          "type": "uint256"
        }
      ],
      "name": "PropertyRemovedFromListing",
      "type": "event"
    },
    {
      "anonymous": false,
      "inputs": [
        {
          "indexed": false,
          "internalType": "address",
          "name": "sender",
          "type": "address"
        },
        {
          "indexed": false,
          "internalType": "uint256",
          "name": "propertyId",
          "type": "uint256"
        },
        {
          "indexed": false,
          "internalType": "uint256",
          "name": "amount",
          "type": "uint256"
        }
      ],
      "name": "PropertyStaked",
      "type": "event"
    },
    {
      "anonymous": false,
      "inputs": [
        {
          "indexed": false,
          "internalType": "uint256",
          "name": "propertyId",
          "type": "uint256"
        },
        {
          "indexed": false,
          "internalType": "uint256",
          "name": "totalSupply",
          "type": "uint256"
        },
        {
          "indexed": false,
          "internalType": "string",
          "name": "propertyAddress",
          "type": "string"
        },
        {
          "indexed": true,
          "internalType": "address",
          "name": "tokenAddress",
          "type": "address"
        }
      ],
      "name": "PropertyTokenized",
      "type": "event"
    },
    {
      "anonymous": false,
      "inputs": [
        {
          "indexed": false,
          "internalType": "uint256",
          "name": "proposalId",
          "type": "uint256"
        },
        {
          "indexed": false,
          "internalType": "string",
          "name": "description",
          "type": "string"
        }
      ],
      "name": "ProposalCreated",
      "type": "event"
    },
    {
      "anonymous": false,
      "inputs": [
        {
          "indexed": false,
          "internalType": "uint256",
          "name": "proposalId",
          "type": "uint256"
        }
      ],
      "name": "ProposalExecuted",
      "type": "event"
    },
    {
      "anonymous": false,
      "inputs": [
        {
          "indexed": false,
          "internalType": "uint256",
          "name": "propertyId",
          "type": "uint256"
        },
        {
          "indexed": true,
          "internalType": "address",
          "name": "stakingPool",
          "type": "address"
        }
      ],
      "name": "StakingPoolCreated",
      "type": "event"
    },
    {
      "anonymous": false,
      "inputs": [
        {
          "indexed": false,
          "internalType": "address",
          "name": "buyer",
          "type": "address"
        },
        {
          "indexed": false,
          "internalType": "uint256",
          "name": "propertyId",
          "type": "uint256"
        },
        {
          "indexed": false,
          "internalType": "uint256",
          "name": "amount",
          "type": "uint256"
        },
        {
          "indexed": false,
          "internalType": "uint256",
          "name": "totalPrice",
          "type": "uint256"
        }
      ],
      "name": "TokenPurchased",
      "type": "event"
    },
    {
      "anonymous": false,
      "inputs": [
        {
          "indexed": false,
          "internalType": "address",
          "name": "account",
          "type": "address"
        }
      ],
      "name": "Unpaused",
      "type": "event"
    },
    {
      "anonymous": false,
      "inputs": [
        {
          "indexed": false,
          "internalType": "uint256",
          "name": "proposalId",
          "type": "uint256"
        },
        {
          "indexed": true,
          "internalType": "address",
          "name": "voter",
          "type": "address"
        }
      ],
      "name": "Voted",
      "type": "event"
    },
    {
      "inputs": [
        {
          "internalType": "string",
          "name": "_address",
          "type": "string"
        },
        {
          "internalType": "uint256",
          "name": "_totalSupply",
          "type": "uint256"
        },
        {
          "internalType": "uint256",
          "name": "_initialPrice",
          "type": "uint256"
        },
        {
          "internalType": "string",
          "name": "_tokenName",
          "type": "string"
        },
        {
          "internalType": "string",
          "name": "_tokenSymbol",
          "type": "string"
        },
        {
          "internalType": "address",
          "name": "_manager",
          "type": "address"
        }
      ],
      "name": "createPropertyToken",
      "outputs": [],
      "stateMutability": "nonpayable",
      "type": "function"
    },
    {
      "inputs": [
        {
          "internalType": "string",
          "name": "_description",
          "type": "string"
        }
      ],
      "name": "createProposal",
      "outputs": [],
      "stateMutability": "nonpayable",
      "type": "function"
    },
    {
      "inputs": [
        {
          "internalType": "uint256",
          "name": "_propertyId",
          "type": "uint256"
        },
        {
          "internalType": "address",
          "name": "_rewardToken",
          "type": "address"
        },
        {
          "internalType": "uint256",
          "name": "_rewardPerToken",
          "type": "uint256"
        }
      ],
      "name": "createStakingPool",
      "outputs": [],
      "stateMutability": "nonpayable",
      "type": "function"
    },
    {
      "inputs": [
        {
          "internalType": "contract SimpleToken",
          "name": "_token",
          "type": "address"
        }
      ],
      "name": "destroyPropertyToken",
      "outputs": [],
      "stateMutability": "nonpayable",
      "type": "function"
    },
    {
      "inputs": [],
      "name": "escrowCount",
      "outputs": [
        {
          "internalType": "uint256",
          "name": "",
          "type": "uint256"
        }
      ],
      "stateMutability": "view",
      "type": "function"
    },
    {
      "inputs": [
        {
          "internalType": "uint256",
          "name": "",
          "type": "uint256"
        }
      ],
      "name": "escrows",
      "outputs": [
        {
          "internalType": "uint256",
          "name": "propertyId",
          "type": "uint256"
        },
        {
          "internalType": "address",
          "name": "buyer",
          "type": "address"
        },
        {
          "internalType": "uint256",
          "name": "amount",
          "type": "uint256"
        },
        {
          "internalType": "bool",
          "name": "completed",
          "type": "bool"
        },
        {
          "internalType": "uint256",
          "name": "ethAmount",
          "type": "uint256"
        }
      ],
      "stateMutability": "view",
      "type": "function"
    },
    {
      "inputs": [
        {
          "internalType": "uint256",
          "name": "_proposalId",
          "type": "uint256"
        }
      ],
      "name": "executeProposal",
      "outputs": [],
      "stateMutability": "nonpayable",
      "type": "function"
    },
    {
      "inputs": [
        {
          "internalType": "uint256",
          "name": "_propertyId",
          "type": "uint256"
        },
        {
          "internalType": "uint256",
          "name": "_pricePerToken",
          "type": "uint256"
        }
      ],
      "name": "listPropertyForSale",
      "outputs": [],
      "stateMutability": "nonpayable",
      "type": "function"
    },
    {
      "inputs": [],
      "name": "owner",
      "outputs": [
        {
          "internalType": "address",
          "name": "",
          "type": "address"
        }
      ],
      "stateMutability": "view",
      "type": "function"
    },
    {
      "inputs": [],
      "name": "pause",
      "outputs": [],
      "stateMutability": "nonpayable",
      "type": "function"
    },
    {
      "inputs": [],
      "name": "paused",
      "outputs": [
        {
          "internalType": "bool",
          "name": "",
          "type": "bool"
        }
      ],
      "stateMutability": "view",
      "type": "function"
    },
    {
      "inputs": [
        {
          "internalType": "uint256",
          "name": "",
          "type": "uint256"
        }
      ],
      "name": "properties",
      "outputs": [
        {
          "internalType": "string",
          "name": "propertyAddress",
          "type": "string"
        },
        {
          "internalType": "address",
          "name": "owner",
          "type": "address"
        },
        {
          "internalType": "uint256",
          "name": "totalSupply",
          "type": "uint256"
        },
        {
          "internalType": "uint256",
          "name": "initialPrice",
          "type": "uint256"
        },
        {
          "internalType": "contract SimpleToken",
          "name": "token",
          "type": "address"
        },
        {
          "internalType": "address",
          "name": "stakingPool",
          "type": "address"
        }
      ],
      "stateMutability": "view",
      "type": "function"
    },
    {
      "inputs": [],
      "name": "propertyCount",
      "outputs": [
        {
          "internalType": "uint256",
          "name": "",
          "type": "uint256"
        }
      ],
      "stateMutability": "view",
      "type": "function"
    },
    {
      "inputs": [],
      "name": "proposalCount",
      "outputs": [
        {
          "internalType": "uint256",
          "name": "",
          "type": "uint256"
        }
      ],
      "stateMutability": "view",
      "type": "function"
    },
    {
      "inputs": [
        {
          "internalType": "uint256",
          "name": "",
          "type": "uint256"
        }
      ],
      "name": "proposals",
      "outputs": [
        {
          "internalType": "string",
          "name": "description",
          "type": "string"
        },
        {
          "internalType": "uint256",
          "name": "voteCount",
          "type": "uint256"
        },
        {
          "internalType": "bool",
          "name": "executed",
          "type": "bool"
        }
      ],
      "stateMutability": "view",
      "type": "function"
    },
    {
      "inputs": [
        {
          "internalType": "uint256",
          "name": "_propertyId",
          "type": "uint256"
        },
        {
          "internalType": "uint256",
          "name": "_amount",
          "type": "uint256"
        }
      ],
      "name": "purchaseTokensAndEscrow",
      "outputs": [],
      "stateMutability": "payable",
      "type": "function"
    },
    {
      "inputs": [
        {
          "internalType": "uint256",
          "name": "_escrowId",
          "type": "uint256"
        }
      ],
      "name": "releaseEscrow",
      "outputs": [],
      "stateMutability": "nonpayable",
      "type": "function"
    },
    {
      "inputs": [
        {
          "internalType": "uint256",
          "name": "_propertyId",
          "type": "uint256"
        }
      ],
      "name": "removeFromListing",
      "outputs": [],
      "stateMutability": "nonpayable",
      "type": "function"
    },
    {
      "inputs": [],
      "name": "renounceOwnership",
      "outputs": [],
      "stateMutability": "nonpayable",
      "type": "function"
    },
    {
      "inputs": [
        {
          "internalType": "address",
          "name": "",
          "type": "address"
        }
      ],
      "name": "rewardPercent",
      "outputs": [
        {
          "internalType": "uint256",
          "name": "",
          "type": "uint256"
        }
      ],
      "stateMutability": "view",
      "type": "function"
    },
    {
      "inputs": [
        {
          "internalType": "uint256",
          "name": "_propertyId",
          "type": "uint256"
        },
        {
          "internalType": "uint256",
          "name": "_amount",
          "type": "uint256"
        }
      ],
      "name": "stakePropertyTokens",
      "outputs": [],
      "stateMutability": "nonpayable",
      "type": "function"
    },
    {
      "inputs": [
        {
          "internalType": "address",
          "name": "",
          "type": "address"
        }
      ],
      "name": "stakedBalances",
      "outputs": [
        {
          "internalType": "uint256",
          "name": "",
          "type": "uint256"
        }
      ],
      "stateMutability": "view",
      "type": "function"
    },
    {
      "inputs": [
        {
          "internalType": "address",
          "name": "",
          "type": "address"
        }
      ],
      "name": "stakingStartTime",
      "outputs": [
        {
          "internalType": "uint256",
          "name": "",
          "type": "uint256"
        }
      ],
      "stateMutability": "view",
      "type": "function"
    },
    {
      "inputs": [
        {
          "internalType": "address",
          "name": "newOwner",
          "type": "address"
        }
      ],
      "name": "transferOwnership",
      "outputs": [],
      "stateMutability": "nonpayable",
      "type": "function"
    },
    {
      "inputs": [],
      "name": "unpause",
      "outputs": [],
      "stateMutability": "nonpayable",
      "type": "function"
    },
    {
      "inputs": [
        {
          "internalType": "uint256",
          "name": "_proposalId",
          "type": "uint256"
        }
      ],
      "name": "voteOnProposal",
      "outputs": [],
      "stateMutability": "nonpayable",
      "type": "function"
    },
    {
      "inputs": [],
      "name": "votingDuration",
      "outputs": [
        {
          "internalType": "uint256",
          "name": "",
          "type": "uint256"
        }
      ],
      "stateMutability": "view",
      "type": "function"
    },
    {
      "inputs": [
        {
          "internalType": "address",
          "name": "_reciever",
          "type": "address"
        }
      ],
      "name": "withdrawExcessEth",
      "outputs": [],
      "stateMutability": "nonpayable",
      "type": "function"
    },
    {
      "inputs": [
        {
          "internalType": "address",
          "name": "_reciever",
          "type": "address"
        },
        {
          "internalType": "contract ERC20",
          "name": "_token",
          "type": "address"
        }
      ],
      "name": "withdrawExcessToken",
      "outputs": [],
      "stateMutability": "nonpayable",
      "type": "function"
    }
  ],
  "bytecode": "0x608060405234801561001057600080fd5b5061001a33610033565b6000805460ff60a01b1916905562093a80600a55610083565b600080546001600160a01b038381166001600160a01b0319831681178455604051919092169283917f8be0079c531659141344cd1fd0a4f28419497f9722a3daafe3b4186f6b6457e09190a35050565b614cbe80620000936000396000f3fe608060405260043610620001e75760003560e01c806389788662116200010b578063da35c66411620000a1578063ed653164116200006c578063ed65316414620005e3578063f2fde38b1462000608578063f35a67f4146200062d578063f7b10808146200065257600080fd5b8063da35c664146200055e578063deecc3991462000576578063ec07d602146200059b578063ec98a5f714620005cc57600080fd5b8063add68edc11620000e2578063add68edc14620004cb578063c361a33514620004f0578063cac257ef1462000508578063d1232730146200052d57600080fd5b80638978866214620004575780638da5cb5b146200047c5780639e80c2c714620004a657600080fd5b806349c2a1a61162000181578063675ac67a1162000158578063675ac67a14620003ea578063715018a614620004025780637995ba90146200041a5780638456cb59146200043f57600080fd5b806349c2a1a614620003745780635b9d252d14620003995780635c975abb14620003be57600080fd5b80630f55415b11620001c25780630f55415b14620002df578063132002fc14620003045780631460fa87146200032b5780633f4ba83a146200035c57600080fd5b8063012f52ee14620001ec578063013cf08b14620002825780630d61b51914620002b8575b600080fd5b348015620001f957600080fd5b506200024b6200020b36600462002143565b60036020819052600091825260409091208054600182015460028301549383015460049093015491936001600160a01b0390911692909160ff9091169085565b604080519586526001600160a01b0390941660208601529284019190915215156060830152608082015260a0015b60405180910390f35b3480156200028f57600080fd5b50620002a7620002a136600462002143565b6200068b565b6040516200027993929190620021a5565b348015620002c557600080fd5b50620002dd620002d736600462002143565b62000741565b005b348015620002ec57600080fd5b50620002dd620002fe366004620021d1565b6200089e565b3480156200031157600080fd5b506200031c600a5481565b60405190815260200162000279565b3480156200033857600080fd5b506200031c6200034a3660046200220a565b60056020526000908152604090205481565b3480156200036957600080fd5b50620002dd620009ff565b3480156200038157600080fd5b50620002dd62000393366004620022dc565b62000a15565b348015620003a657600080fd5b50620002dd620003b836600462002143565b62000b00565b348015620003cb57600080fd5b50600054600160a01b900460ff16604051901515815260200162000279565b348015620003f757600080fd5b506200031c60045481565b3480156200040f57600080fd5b50620002dd62000c56565b3480156200042757600080fd5b50620002dd620004393660046200231d565b62000c6c565b3480156200044c57600080fd5b50620002dd62000d62565b3480156200046457600080fd5b50620002dd620004763660046200235b565b62000d76565b3480156200048957600080fd5b506000546040516001600160a01b03909116815260200162000279565b348015620004b357600080fd5b50620002dd620004c53660046200220a565b62000fa3565b348015620004d857600080fd5b50620002dd620004ea36600462002143565b62000fe7565b348015620004fd57600080fd5b506200031c60025481565b3480156200051557600080fd5b50620002dd6200052736600462002396565b62001260565b3480156200053a57600080fd5b506200031c6200054c3660046200220a565b60066020526000908152604090205481565b3480156200056b57600080fd5b506200031c60095481565b3480156200058357600080fd5b50620002dd620005953660046200220a565b6200145d565b348015620005a857600080fd5b506200031c620005ba3660046200220a565b60076020526000908152604090205481565b620002dd620005dd366004620021d1565b620014c5565b348015620005f057600080fd5b50620002dd6200060236600462002143565b6200179a565b3480156200061557600080fd5b50620002dd620006273660046200220a565b62001a12565b3480156200063a57600080fd5b50620002dd6200064c366004620021d1565b62001a91565b3480156200065f57600080fd5b50620006776200067136600462002143565b62001d47565b604051620002799695949392919062002451565b600860205260009081526040902080548190620006a890620024a0565b80601f0160208091040260200160405190810160405280929190818152602001828054620006d690620024a0565b8015620007275780601f10620006fb5761010080835404028352916020019162000727565b820191906000526020600020905b8154815290600101906020018083116200070957829003601f168201915b50505050600183015460029093015491929160ff16905083565b6200074b62001e1b565b6009548110620007985760405162461bcd60e51b8152602060048201526013602482015272125b9d985b1a59081c1c9bdc1bdcd85b081251606a1b60448201526064015b60405180910390fd5b6000818152600860205260409020600281015460ff1615620007fd5760405162461bcd60e51b815260206004820152601960248201527f50726f706f73616c20616c72656164792065786563757465640000000000000060448201526064016200078f565b600a546001820154620008109162001e77565b4210156200085a5760405162461bcd60e51b81526020600482015260166024820152752b37ba34b733903832b934b7b2103737ba1037bb32b960511b60448201526064016200078f565b6040518281527f712ae1383f79ac853f8d882153778e0260ef8f03b504e2866e0593e04d2b291f9060200160405180910390a1600201805460ff1916600117905550565b6000828152600160208190526040909120015482906001600160a01b03163314620009245760405162461bcd60e51b815260206004820152602f60248201527f4f6e6c79207468652070726f7065727479206f776e65722063616e207065726660448201526e37b936903a3434b99030b1ba34b7b760891b60648201526084016200078f565b6002548310620009485760405162461bcd60e51b81526004016200078f90620024dc565b60008211620009ac5760405162461bcd60e51b815260206004820152602960248201527f50726963652070657220746f6b656e206d7573742062652067726561746572206044820152687468616e207a65726f60b81b60648201526084016200078f565b60008381526001602090815260409182902060030184905581518581529081018490527f88b3e10fc821dcf6e0c9b8b02e38f5fff401bfab2172fb035d249c01f094de7d910160405180910390a1505050565b62000a0962001e1b565b62000a1362001e8e565b565b62000a1f62001e1b565b6040805160808101825282815260006020808301829052828401829052835182815280820185526060840152600954825260089052919091208151819062000a6890826200255b565b506020828101516001830155604083015160028301805460ff19169115159190911790556060830151805162000aa59260038501920190620020a6565b509050507f9c770c289ab5bf7e57cb1d23c8ceae993aea46eb64847072fd3d78ca60d3e4326009548260405162000ade92919062002628565b60405180910390a16009805490600062000af88362002659565b919050555050565b62000b0a62001e1b565b600254811062000b2e5760405162461bcd60e51b81526004016200078f90620024dc565b60008181526003602081905260409091209081015460ff1662000bef57600181015460028201546040516001600160a01b039092169181156108fc0291906000818181858888f1935050505015801562000b8c573d6000803e3d6000fd5b5060038101805460ff191660019081179091558101546002820154604080518581526001600160a01b0390931660208401528201527fdb19fb28f3e1bd98931a09b28e0c217ab5008bfb3cbb1bdd406d994ad534a7359060600160405180910390a15b6000828152600160205260408082206003810192909255600590910180546001600160a01b0319169055517feaf40f681fc3f63ed8a7297beaddc8165ad9fdaba02f05a39d8caf7fb82f1b379062000c4a9084815260200190565b60405180910390a15050565b62000c6062001e1b565b62000a13600062001ee5565b62000c7662001e1b565b6040516370a0823160e01b81523060048201526001600160a01b0382169063a9059cbb90849083906370a0823190602401602060405180830381865afa15801562000cc5573d6000803e3d6000fd5b505050506040513d601f19601f8201168201806040525081019062000ceb919062002675565b6040516001600160e01b031960e085901b1681526001600160a01b03909216600483015260248201526044016020604051808303816000875af115801562000d37573d6000803e3d6000fd5b505050506040513d601f19601f8201168201806040525081019062000d5d91906200268f565b505050565b62000d6c62001e1b565b62000a1362001f35565b62000d8062001e1b565b600254831062000da45760405162461bcd60e51b81526004016200078f90620024dc565b6000838152600160205260409020600501546001600160a01b03161562000e0e5760405162461bcd60e51b815260206004820152601c60248201527f5374616b696e6720706f6f6c20616c726561647920637265617465640000000060448201526064016200078f565b6001600160a01b03821662000e665760405162461bcd60e51b815260206004820152601c60248201527f496e76616c69642072657761726420746f6b656e20616464726573730000000060448201526064016200078f565b6000811162000ecb5760405162461bcd60e51b815260206004820152602a60248201527f5265776172642070657220746f6b656e206d7573742062652067726561746572604482015269207468616e207a65726f60b01b60648201526084016200078f565b6000838152600160205260408082206004015490516001600160a01b03909116908490849062000efb9062002110565b6001600160a01b0393841681529290911660208301526040820152606001604051809103906000f08015801562000f36573d6000803e3d6000fd5b5060008581526001602090815260409182902060050180546001600160a01b0319166001600160a01b038516908117909155915187815292935090917f4a13c6e39e7b1a55efde5a451a2e84f4b11d5ba538be0e26224ccaa8d90b78e9910160405180910390a250505050565b62000fad62001e1b565b6040516001600160a01b038216904780156108fc02916000818181858888f1935050505015801562000fe3573d6000803e3d6000fd5b5050565b6009548110620010305760405162461bcd60e51b8152602060048201526013602482015272125b9d985b1a59081c1c9bdc1bdcd85b081251606a1b60448201526064016200078f565b600080805260016020527fa6eef7e35abe7026729641147f7915573c7e97b47efa546f5f6e3230263bcb4d546040516370a0823160e01b81523360048201526001600160a01b03909116906370a0823190602401602060405180830381865afa158015620010a2573d6000803e3d6000fd5b505050506040513d601f19601f82011682018060405250810190620010c8919062002675565b11620011215760405162461bcd60e51b815260206004820152602160248201527f4d75737420686f6c642070726f706572747920746f6b656e7320746f20766f746044820152606560f81b60648201526084016200078f565b600081815260086020908152604091829020600381018054845181850281018501909552808552919362001199939092908301828280156200118d57602002820191906000526020600020905b81546001600160a01b031681526001909101906020018083116200116e575b50505050503362001f7b565b15620011e85760405162461bcd60e51b815260206004820152601e60248201527f416c726561647920766f746564206f6e20746869732070726f706f73616c000060448201526064016200078f565b6003810180546001818101835560009283526020832090910180546001600160a01b031916331790558201805491620012218362002659565b909155505060405182815233907f030b0f8dcd86a031eddb071f91882edeac8173663ba775713b677b42b51be44b906020015b60405180910390a25050565b6200126a62001e1b565b60008511620012cb5760405162461bcd60e51b815260206004820152602660248201527f546f74616c20737570706c79206d7573742062652067726561746572207468616044820152656e207a65726f60d01b60648201526084016200078f565b600083838784604051620012df906200211e565b620012ee9493929190620026b3565b604051809103906000f0801580156200130b573d6000803e3d6000fd5b509050600060025490506040518060c00160405280898152602001846001600160a01b03168152602001888152602001878152602001836001600160a01b0316815260200160006001600160a01b03168152506001600083815260200190815260200160002060008201518160000190816200138891906200255b565b5060208201516001820180546001600160a01b039283166001600160a01b031991821617909155604084015160028085019190915560608501516003850155608085015160048501805491851691841691909117905560a090940151600590930180549390921692169190911790558054906000620014078362002659565b9190505550816001600160a01b03167f4d7d0f282721397ee89ea5016a0fbd8a8c0a3c15872a244dd76af61e937ed1e282898b6040516200144b93929190620026fe565b60405180910390a25050505050505050565b6200146762001e1b565b604051633f5a0bdd60e01b81523360048201526001600160a01b03821690633f5a0bdd90602401600060405180830381600087803b158015620014a957600080fd5b505af1158015620014be573d6000803e3d6000fd5b5050505050565b620014cf62001fe9565b6002548210620014f35760405162461bcd60e51b81526004016200078f90620024dc565b600082815260016020526040902060030154620015535760405162461bcd60e51b815260206004820152601c60248201527f50726f7065727479206e6f74206c697374656420666f722073616c650000000060448201526064016200078f565b60008111620015a55760405162461bcd60e51b815260206004820181905260248201527f416d6f756e74206d7573742062652067726561746572207468616e207a65726f60448201526064016200078f565b600082815260016020526040902060030154620015da90670de0b6b3a764000090620015d390849062002038565b9062002046565b34146200162a5760405162461bcd60e51b815260206004820152601860248201527f496e636f7272656374207061796d656e7420616d6f756e74000000000000000060448201526064016200078f565b6000828152600160205260408120600301546200165890670de0b6b3a764000090620015d390859062002038565b6040805160a081018252858152336020808301918252828401878152600060608501818152608086018881526004805484526003958690529783208751815595516001870180546001600160a01b0319166001600160a01b039092169190911790559251600286015551928401805460ff1916931515939093179092555191840191909155825493945090929190620016f18362002659565b90915550506040805133815260208101869052908101849052606081018390527f2b0c4dfbf2e34a2292e9110d6ea90d7c78f54b3aebe3974d2db7197308f21ff89060800160405180910390a17fb357254b93527e63d7a8b4c8bfd45a0484888fc3ae105197566af8fa8f5a9e7e600160045462001770919062002728565b6040805191825233602083015281018690526060810185905260800160405180910390a150505050565b620017a462001e1b565b6004548110620017eb5760405162461bcd60e51b8152602060048201526011602482015270125b9d985b1a5908195cd8dc9bddc81251607a1b60448201526064016200078f565b60008181526003602081905260409091209081015460ff1615620018525760405162461bcd60e51b815260206004820152601860248201527f457363726f7720616c726561647920636f6d706c65746564000000000000000060448201526064016200078f565b60038101805460ff19166001908117909155815460009081526020829052604090819020600490810154928401546002850154925163a9059cbb60e01b81526001600160a01b0391821692810192909252602482019290925291169063a9059cbb906044016020604051808303816000875af1158015620018d7573d6000803e3d6000fd5b505050506040513d601f19601f82011682018060405250810190620018fd91906200268f565b508054600090815260016020908152604091829020600490810154835163481c6a7560e01b815293516001600160a01b039091169363481c6a7593818401939092918290030181865afa15801562001959573d6000803e3d6000fd5b505050506040513d601f19601f820116820180604052508101906200197f91906200273e565b6001600160a01b03166108fc82600401549081150290604051600060405180830381858888f19350505050158015620019bc573d6000803e3d6000fd5b506001810154815460028301546040805186815260208101939093528201526001600160a01b03909116907fec066aa65c5abc8d31878e4827210f6d7a7e2aed6d2387c96ab433bd89a302bf9060600162001254565b62001a1c62001e1b565b6001600160a01b03811662001a835760405162461bcd60e51b815260206004820152602660248201527f4f776e61626c653a206e6577206f776e657220697320746865207a65726f206160448201526564647265737360d01b60648201526084016200078f565b62001a8e8162001ee5565b50565b600254821062001ab55760405162461bcd60e51b81526004016200078f90620024dc565b6000828152600160205260409020600501546001600160a01b031662001b1e5760405162461bcd60e51b815260206004820152601860248201527f5374616b696e6720706f6f6c206e6f742063726561746564000000000000000060448201526064016200078f565b6000811162001b705760405162461bcd60e51b815260206004820181905260248201527f416d6f756e74206d7573742062652067726561746572207468616e207a65726f60448201526064016200078f565b6000828152600160205260409081902060049081015491516323b872dd60e01b81523391810191909152306024820152604481018390526001600160a01b03909116906323b872dd906064016020604051808303816000875af115801562001bdc573d6000803e3d6000fd5b505050506040513d601f19601f8201168201806040525081019062001c0291906200268f565b5060008281526001602052604090819020600480820154600590920154925163a9059cbb60e01b81526001600160a01b03938416918101919091526024810184905291169063a9059cbb906044016020604051808303816000875af115801562001c70573d6000803e3d6000fd5b505050506040513d601f19601f8201168201806040525081019062001c9691906200268f565b506000828152600160205260409081902060050154905163534a7e1d60e11b8152600481018390526001600160a01b039091169063a694fc3a90602401600060405180830381600087803b15801562001cee57600080fd5b505af115801562001d03573d6000803e3d6000fd5b505060408051338152602081018690529081018490527f2b787b38f09370a1eb73e50b02c5d95f4cdd175cffb25bd9ae6bc604a7af1b889250606001905062000c4a565b60016020526000908152604090208054819062001d6490620024a0565b80601f016020809104026020016040519081016040528092919081815260200182805462001d9290620024a0565b801562001de35780601f1062001db75761010080835404028352916020019162001de3565b820191906000526020600020905b81548152906001019060200180831162001dc557829003601f168201915b505050600184015460028501546003860154600487015460059097015495966001600160a01b03938416969295509093508216911686565b6000546001600160a01b0316331462000a135760405162461bcd60e51b815260206004820181905260248201527f4f776e61626c653a2063616c6c6572206973206e6f7420746865206f776e657260448201526064016200078f565b600062001e8582846200275e565b90505b92915050565b62001e9862002054565b6000805460ff60a01b191690557f5db9ee0a495bf2e6ff9c91a7834c1ba4fdd244a5e8aa4e537bd38aeae4b073aa335b6040516001600160a01b03909116815260200160405180910390a1565b600080546001600160a01b038381166001600160a01b0319831681178455604051919092169283917f8be0079c531659141344cd1fd0a4f28419497f9722a3daafe3b4186f6b6457e09190a35050565b62001f3f62001fe9565b6000805460ff60a01b1916600160a01b1790557f62e78cea01bee320cd4e420270b5ea74000d11b0c9f74754ebdbfc544b05a25862001ec83390565b6000805b835181101562001fdf57826001600160a01b031684828151811062001fa85762001fa862002774565b60200260200101516001600160a01b03160362001fca57600191505062001e88565b8062001fd68162002659565b91505062001f7f565b5060009392505050565b600054600160a01b900460ff161562000a135760405162461bcd60e51b815260206004820152601060248201526f14185d5cd8589b194e881c185d5cd95960821b60448201526064016200078f565b600062001e8582846200278a565b600062001e858284620027a4565b600054600160a01b900460ff1662000a135760405162461bcd60e51b815260206004820152601460248201527314185d5cd8589b194e881b9bdd081c185d5cd95960621b60448201526064016200078f565b828054828255906000526020600020908101928215620020fe579160200282015b82811115620020fe57825182546001600160a01b0319166001600160a01b03909116178255602090920191600190910190620020c7565b506200210c9291506200212c565b5090565b610c8780620027c883390190565b61183a806200344f83390190565b5b808211156200210c57600081556001016200212d565b6000602082840312156200215657600080fd5b5035919050565b6000815180845260005b81811015620021855760208185018101518683018201520162002167565b506000602082860101526020601f19601f83011685010191505092915050565b606081526000620021ba60608301866200215d565b602083019490945250901515604090910152919050565b60008060408385031215620021e557600080fd5b50508035926020909101359150565b6001600160a01b038116811462001a8e57600080fd5b6000602082840312156200221d57600080fd5b81356200222a81620021f4565b9392505050565b634e487b7160e01b600052604160045260246000fd5b600082601f8301126200225957600080fd5b813567ffffffffffffffff8082111562002277576200227762002231565b604051601f8301601f19908116603f01168101908282118183101715620022a257620022a262002231565b81604052838152866020858801011115620022bc57600080fd5b836020870160208301376000602085830101528094505050505092915050565b600060208284031215620022ef57600080fd5b813567ffffffffffffffff8111156200230757600080fd5b620023158482850162002247565b949350505050565b600080604083850312156200233157600080fd5b82356200233e81620021f4565b915060208301356200235081620021f4565b809150509250929050565b6000806000606084860312156200237157600080fd5b8335925060208401356200238581620021f4565b929592945050506040919091013590565b60008060008060008060c08789031215620023b057600080fd5b863567ffffffffffffffff80821115620023c957600080fd5b620023d78a838b0162002247565b975060208901359650604089013595506060890135915080821115620023fc57600080fd5b6200240a8a838b0162002247565b945060808901359150808211156200242157600080fd5b506200243089828a0162002247565b92505060a08701356200244381620021f4565b809150509295509295509295565b60c0815260006200246660c08301896200215d565b6001600160a01b0397881660208401526040830196909652506060810193909352908416608083015290921660a090920191909152919050565b600181811c90821680620024b557607f821691505b602082108103620024d657634e487b7160e01b600052602260045260246000fd5b50919050565b602080825260139082015272125b9d985b1a59081c1c9bdc195c9d1e481251606a1b604082015260600190565b601f82111562000d5d57600081815260208120601f850160051c81016020861015620025325750805b601f850160051c820191505b8181101562002553578281556001016200253e565b505050505050565b815167ffffffffffffffff81111562002578576200257862002231565b6200259081620025898454620024a0565b8462002509565b602080601f831160018114620025c85760008415620025af5750858301515b600019600386901b1c1916600185901b17855562002553565b600085815260208120601f198616915b82811015620025f957888601518255948401946001909101908401620025d8565b5085821015620026185787850151600019600388901b60f8161c191681555b5050505050600190811b01905550565b8281526040602082015260006200231560408301846200215d565b634e487b7160e01b600052601160045260246000fd5b6000600182016200266e576200266e62002643565b5060010190565b6000602082840312156200268857600080fd5b5051919050565b600060208284031215620026a257600080fd5b815180151581146200222a57600080fd5b608081526000620026c860808301876200215d565b8281036020840152620026dc81876200215d565b604084019590955250506001600160a01b039190911660609091015292915050565b8381528260208201526060604082015260006200271f60608301846200215d565b95945050505050565b8181038181111562001e885762001e8862002643565b6000602082840312156200275157600080fd5b81516200222a81620021f4565b8082018082111562001e885762001e8862002643565b634e487b7160e01b600052603260045260246000fd5b808202811582820484141762001e885762001e8862002643565b600082620027c257634e487b7160e01b600052601260045260246000fd5b50049056fe608060405234801561001057600080fd5b50604051610c87380380610c8783398101604081905261002f916101f0565b61003833610184565b6001600160a01b0383166100935760405162461bcd60e51b815260206004820152601e60248201527f496e76616c69642070726f706572747920746f6b656e2061646472657373000060448201526064015b60405180910390fd5b6001600160a01b0382166100e95760405162461bcd60e51b815260206004820152601c60248201527f496e76616c69642072657761726420746f6b656e206164647265737300000000604482015260640161008a565b6000811161014c5760405162461bcd60e51b815260206004820152602a60248201527f5265776172642070657220746f6b656e206d7573742062652067726561746572604482015269207468616e207a65726f60b01b606482015260840161008a565b600180546001600160a01b039485166001600160a01b031991821617909155600280549390941692169190911790915560035561022c565b600080546001600160a01b038381166001600160a01b0319831681178455604051919092169283917f8be0079c531659141344cd1fd0a4f28419497f9722a3daafe3b4186f6b6457e09190a35050565b80516001600160a01b03811681146101eb57600080fd5b919050565b60008060006060848603121561020557600080fd5b61020e846101d4565b925061021c602085016101d4565b9150604084015190509250925092565b610a4c8061023b6000396000f3fe608060405234801561001057600080fd5b50600436106100cf5760003560e01c80638da5cb5b1161008c578063a694fc3a11610066578063a694fc3a146101bd578063cd3daf9d146101d0578063f2fde38b146101e7578063f7c618c1146101fa57600080fd5b80638da5cb5b1461014f5780639168ae72146101605780639e80c2c7146101aa57600080fd5b80632e17de78146100d4578063372500ab146100e957806343ae2695146100f15780634ffdfb9114610121578063715018a6146101345780637995ba901461013c575b600080fd5b6100e76100e23660046108db565b61020d565b005b6100e761038f565b600154610104906001600160a01b031681565b6040516001600160a01b0390911681526020015b60405180910390f35b6100e761012f3660046108db565b6104a1565b6100e7610511565b6100e761014a366004610909565b610525565b6000546001600160a01b0316610104565b61018f61016e366004610942565b60046020526000908152604090208054600182015460029092015490919083565b60408051938452602084019290925290820152606001610118565b6100e76101b8366004610942565b610613565b6100e76101cb3660046108db565b610654565b6101d960035481565b604051908152602001610118565b6100e76101f5366004610942565b610702565b600254610104906001600160a01b031681565b600081116102625760405162461bcd60e51b815260206004820181905260248201527f416d6f756e74206d7573742062652067726561746572207468616e207a65726f60448201526064015b60405180910390fd5b32600090815260046020526040902080548211156102c25760405162461bcd60e51b815260206004820152601a60248201527f496e73756666696369656e74207374616b656420616d6f756e740000000000006044820152606401610259565b6102cb8161077b565b60015460405163a9059cbb60e01b8152326004820152602481018490526001600160a01b039091169063a9059cbb906044016020604051808303816000875af115801561031c573d6000803e3d6000fd5b505050506040513d601f19601f820116820180604052508101906103409190610966565b50805461034d90836107f8565b815542600182015560405182815232907f0f5bb82176feb1b5e747e28471aa92156a04d9f3ab9f45f28e2d704232b93f75906020015b60405180910390a25050565b33600090815260046020526040902060028101546103e45760405162461bcd60e51b81526020600482015260126024820152714e6f2070656e64696e67207265776172647360701b6044820152606401610259565b600280549082015460405163a9059cbb60e01b815233600482015260248101919091526001600160a01b039091169063a9059cbb906044016020604051808303816000875af115801561043b573d6000803e3d6000fd5b505050506040513d601f19601f8201168201806040525081019061045f9190610966565b5060006002820181905560405190815233907ffc30cddea38e2bf4d6ea7d3f9ed3b6ad7f176419f4963bd81318067a4aee73fe9060200160405180910390a250565b6104a961080d565b6000811161050c5760405162461bcd60e51b815260206004820152602a60248201527f5265776172642070657220746f6b656e206d7573742062652067726561746572604482015269207468616e207a65726f60b01b6064820152608401610259565b600355565b61051961080d565b6105236000610867565b565b61052d61080d565b6040516370a0823160e01b81523060048201526001600160a01b0382169063a9059cbb90849083906370a0823190602401602060405180830381865afa15801561057b573d6000803e3d6000fd5b505050506040513d601f19601f8201168201806040525081019061059f9190610988565b6040516001600160e01b031960e085901b1681526001600160a01b03909216600483015260248201526044016020604051808303816000875af11580156105ea573d6000803e3d6000fd5b505050506040513d601f19601f8201168201806040525081019061060e9190610966565b505050565b61061b61080d565b6040516001600160a01b038216904780156108fc02916000818181858888f19350505050158015610650573d6000803e3d6000fd5b5050565b600081116106a45760405162461bcd60e51b815260206004820181905260248201527f416d6f756e74206d7573742062652067726561746572207468616e207a65726f6044820152606401610259565b3360009081526004602052604090206106bc8161077b565b80546106c890836108b7565b815542600182015560405182815233907f9e71bc8eea02a63969f509818f2dafb9254532904319f9dbda79b67bd34a5f3d90602001610383565b61070a61080d565b6001600160a01b03811661076f5760405162461bcd60e51b815260206004820152602660248201527f4f776e61626c653a206e6577206f776e657220697320746865207a65726f206160448201526564647265737360d01b6064820152608401610259565b61077881610867565b50565b80541561077857600181015442906000906107979083906107f8565b905060006107d7670de0b6b3a76400006107d1620151806107d16003546107cb888b600001546108c390919063ffffffff16565b906108c3565b906108cf565b60028501549091506107e990826108b7565b60028501555050600182015550565b600061080482846109b7565b90505b92915050565b6000546001600160a01b031633146105235760405162461bcd60e51b815260206004820181905260248201527f4f776e61626c653a2063616c6c6572206973206e6f7420746865206f776e65726044820152606401610259565b600080546001600160a01b038381166001600160a01b0319831681178455604051919092169283917f8be0079c531659141344cd1fd0a4f28419497f9722a3daafe3b4186f6b6457e09190a35050565b600061080482846109ca565b600061080482846109dd565b600061080482846109f4565b6000602082840312156108ed57600080fd5b5035919050565b6001600160a01b038116811461077857600080fd5b6000806040838503121561091c57600080fd5b8235610927816108f4565b91506020830135610937816108f4565b809150509250929050565b60006020828403121561095457600080fd5b813561095f816108f4565b9392505050565b60006020828403121561097857600080fd5b8151801515811461095f57600080fd5b60006020828403121561099a57600080fd5b5051919050565b634e487b7160e01b600052601160045260246000fd5b81810381811115610807576108076109a1565b80820180821115610807576108076109a1565b8082028115828204841417610807576108076109a1565b600082610a1157634e487b7160e01b600052601260045260246000fd5b50049056fea264697066735822122099f34eb8540903275f0a05a2513e874079a0099c096e635f71d4b9e2d38c41e764736f6c6343000812003360806040523480156200001157600080fd5b506040516200183a3803806200183a83398101604081905262000034916200028c565b83836003620000448382620003af565b506004620000538282620003af565b505050620000706200006a620000a660201b60201c565b620000aa565b6200007c3383620000fc565b600980546001600160a01b0319166001600160a01b039290921691909117905550620004a3915050565b3390565b600580546001600160a01b038381166001600160a01b0319831681179093556040519116919082907f8be0079c531659141344cd1fd0a4f28419497f9722a3daafe3b4186f6b6457e090600090a35050565b6001600160a01b038216620001575760405162461bcd60e51b815260206004820152601f60248201527f45524332303a206d696e7420746f20746865207a65726f206164647265737300604482015260640160405180910390fd5b80600260008282546200016b91906200047b565b90915550506001600160a01b038216600081815260208181526040808320805486019055518481527fddf252ad1be2c89b69c2b068fc378daa952ba7f163c4a11628f55a4df523b3ef910160405180910390a35050565b505050565b634e487b7160e01b600052604160045260246000fd5b600082601f830112620001ef57600080fd5b81516001600160401b03808211156200020c576200020c620001c7565b604051601f8301601f19908116603f01168101908282118183101715620002375762000237620001c7565b816040528381526020925086838588010111156200025457600080fd5b600091505b8382101562000278578582018301518183018401529082019062000259565b600093810190920192909252949350505050565b60008060008060808587031215620002a357600080fd5b84516001600160401b0380821115620002bb57600080fd5b620002c988838901620001dd565b95506020870151915080821115620002e057600080fd5b50620002ef87828801620001dd565b60408701516060880151919550935090506001600160a01b03811681146200031657600080fd5b939692955090935050565b600181811c908216806200033657607f821691505b6020821081036200035757634e487b7160e01b600052602260045260246000fd5b50919050565b601f821115620001c257600081815260208120601f850160051c81016020861015620003865750805b601f850160051c820191505b81811015620003a75782815560010162000392565b505050505050565b81516001600160401b03811115620003cb57620003cb620001c7565b620003e381620003dc845462000321565b846200035d565b602080601f8311600181146200041b5760008415620004025750858301515b600019600386901b1c1916600185901b178555620003a7565b600085815260208120601f198616915b828110156200044c578886015182559484019460019091019084016200042b565b50858210156200046b5787850151600019600388901b60f8161c191681555b5050505050600190811b01905550565b808201808211156200049d57634e487b7160e01b600052601160045260246000fd5b92915050565b61138780620004b36000396000f3fe608060405234801561001057600080fd5b50600436106101735760003560e01c806370a08231116100de578063a457c2d711610097578063d30f945a11610071578063d30f945a14610356578063dd62ed3e14610369578063e74f3fbb1461037c578063f2fde38b1461038457600080fd5b8063a457c2d71461031d578063a9059cbb14610330578063d1ef4e911461034357600080fd5b806370a08231146102ad578063715018a6146102d65780637995ba90146102de5780638da5cb5b146102f157806395d89b41146103025780639e80c2c71461030a57600080fd5b806323b872dd1161013057806323b872dd14610225578063313ce5671461023857806339509351146102475780633f5a0bdd1461025a57806340c10f191461026f578063481c6a751461028257600080fd5b8063032bbf4f1461017857806306fdde03146101b4578063095ea7b3146101c95780630e2d1a2a146101ec57806318160ddd14610215578063199cbc541461021d575b600080fd5b6101a16101863660046110d2565b6001600160a01b031660009081526008602052604090205490565b6040519081526020015b60405180910390f35b6101bc610397565b6040516101ab91906110f6565b6101dc6101d7366004611144565b610429565b60405190151581526020016101ab565b6101a16101fa3660046110d2565b6001600160a01b031660009081526007602052604090205490565b6002546101a1565b6006546101a1565b6101dc610233366004611170565b610443565b604051601281526020016101ab565b6101dc610255366004611144565b610467565b61026d6102683660046110d2565b610489565b005b61026d61027d366004611144565b6104f8565b600954610295906001600160a01b031681565b6040516001600160a01b0390911681526020016101ab565b6101a16102bb3660046110d2565b6001600160a01b031660009081526020819052604090205490565b61026d610530565b61026d6102ec3660046111b1565b610544565b6005546001600160a01b0316610295565b6101bc610654565b61026d6103183660046110d2565b610663565b6101dc61032b366004611144565b6106c2565b6101dc61033e366004611144565b61073d565b61026d6103513660046111ea565b61074b565b61026d6103643660046110d2565b610937565b6101a16103773660046111b1565b610983565b61026d6109ae565b61026d6103923660046110d2565b610b97565b6060600380546103a69061121f565b80601f01602080910402602001604051908101604052809291908181526020018280546103d29061121f565b801561041f5780601f106103f45761010080835404028352916020019161041f565b820191906000526020600020905b81548152906001019060200180831161040257829003601f168201915b5050505050905090565b600033610437818585610c10565b60019150505b92915050565b600033610451858285610d34565b61045c858585610dae565b506001949350505050565b60003361043781858561047a8383610983565b610484919061126f565b610c10565b610491610f52565b6001600160a01b0381166104ec5760405162461bcd60e51b815260206004820152601960248201527f496e76616c696420726563697069656e7420616464726573730000000000000060448201526064015b60405180910390fd5b806001600160a01b0316ff5b6009546001600160a01b031633146105225760405162461bcd60e51b81526004016104e390611282565b61052c8282610fac565b5050565b610538610f52565b610542600061106b565b565b6009546001600160a01b0316331461056e5760405162461bcd60e51b81526004016104e390611282565b6040516370a0823160e01b81523060048201526001600160a01b0382169063a9059cbb90849083906370a0823190602401602060405180830381865afa1580156105bc573d6000803e3d6000fd5b505050506040513d601f19601f820116820180604052508101906105e091906112ca565b6040516001600160e01b031960e085901b1681526001600160a01b03909216600483015260248201526044016020604051808303816000875af115801561062b573d6000803e3d6000fd5b505050506040513d601f19601f8201168201806040525081019061064f91906112e3565b505050565b6060600480546103a69061121f565b6009546001600160a01b0316331461068d5760405162461bcd60e51b81526004016104e390611282565b6040516001600160a01b038216904780156108fc02916000818181858888f1935050505015801561052c573d6000803e3d6000fd5b600033816106d08286610983565b9050838110156107305760405162461bcd60e51b815260206004820152602560248201527f45524332303a2064656372656173656420616c6c6f77616e63652062656c6f77604482015264207a65726f60d81b60648201526084016104e3565b61045c8286868403610c10565b600033610437818585610dae565b6009546001600160a01b031633146107755760405162461bcd60e51b81526004016104e390611282565b600082116107c55760405162461bcd60e51b815260206004820181905260248201527f546f6b656e73206d7573742062652067726561746572207468616e207a65726f60448201526064016104e3565b600081116108205760405162461bcd60e51b815260206004820152602260248201527f4475726174696f6e206d7573742062652067726561746572207468616e207a65604482015261726f60f01b60648201526084016104e3565b6001600160a01b038316600090815260086020526040902054156108a05760405162461bcd60e51b815260206004820152603160248201527f56657374696e672068617320616c7265616479206265656e207374617274656460448201527020666f722074686973206164647265737360781b60648201526084016104e3565b6001600160a01b0383166000908152600860209081526040808320429081905560079092529091208390556006546108d9908490611305565b6006556001600160a01b0384167fdbac898e65d6e2eb500e4a2721266f81bbe66f2b88f851d052acf9cbe5828d388483610913868261126f565b6040805193845260208401929092529082015260600160405180910390a250505050565b6009546001600160a01b031633146109615760405162461bcd60e51b81526004016104e390611282565b600980546001600160a01b0319166001600160a01b0392909216919091179055565b6001600160a01b03918216600090815260016020908152604080832093909416825291909152205490565b33600090815260086020526040902054610a205760405162461bcd60e51b815260206004820152602d60248201527f56657374696e6720686173206e6f74206265656e207374617274656420666f7260448201526c2074686973206164647265737360981b60648201526084016104e3565b336000908152600860205260408120544291610a3c8284611305565b3360009081526007602052604090205490915081610aa85760405162461bcd60e51b8152602060048201526024808201527f56657374696e67206475726174696f6e20686173206e6f742073746172746564604482015263081e595d60e21b60648201526084016104e3565b60008111610aed5760405162461bcd60e51b81526020600482015260126024820152714e6f20746f6b656e7320746f20636c61696d60701b60448201526064016104e3565b60006301e13380610afe8484611318565b610b08919061132f565b9050818110610b355750336000908152600860209081526040808320839055600790915281205580610b50565b610b3f8183611305565b336000908152600760205260409020555b610b5b303383610dae565b60405181815233907f896e034966eaaf1adc54acc0f257056febbd300c9e47182cf761982cf1f5e4309060200160405180910390a25050505050565b610b9f610f52565b6001600160a01b038116610c045760405162461bcd60e51b815260206004820152602660248201527f4f776e61626c653a206e6577206f776e657220697320746865207a65726f206160448201526564647265737360d01b60648201526084016104e3565b610c0d8161106b565b50565b6001600160a01b038316610c725760405162461bcd60e51b8152602060048201526024808201527f45524332303a20617070726f76652066726f6d20746865207a65726f206164646044820152637265737360e01b60648201526084016104e3565b6001600160a01b038216610cd35760405162461bcd60e51b815260206004820152602260248201527f45524332303a20617070726f766520746f20746865207a65726f206164647265604482015261737360f01b60648201526084016104e3565b6001600160a01b0383811660008181526001602090815260408083209487168084529482529182902085905590518481527f8c5be1e5ebec7d5bd14f71427d1e84f3dd0314c0f7b2291e5b200ac8c7c3b925910160405180910390a3505050565b6000610d408484610983565b90506000198114610da85781811015610d9b5760405162461bcd60e51b815260206004820152601d60248201527f45524332303a20696e73756666696369656e7420616c6c6f77616e636500000060448201526064016104e3565b610da88484848403610c10565b50505050565b6001600160a01b038316610e125760405162461bcd60e51b815260206004820152602560248201527f45524332303a207472616e736665722066726f6d20746865207a65726f206164604482015264647265737360d81b60648201526084016104e3565b6001600160a01b038216610e745760405162461bcd60e51b815260206004820152602360248201527f45524332303a207472616e7366657220746f20746865207a65726f206164647260448201526265737360e81b60648201526084016104e3565b6001600160a01b03831660009081526020819052604090205481811015610eec5760405162461bcd60e51b815260206004820152602660248201527f45524332303a207472616e7366657220616d6f756e7420657863656564732062604482015265616c616e636560d01b60648201526084016104e3565b6001600160a01b03848116600081815260208181526040808320878703905593871680835291849020805487019055925185815290927fddf252ad1be2c89b69c2b068fc378daa952ba7f163c4a11628f55a4df523b3ef910160405180910390a3610da8565b6005546001600160a01b031633146105425760405162461bcd60e51b815260206004820181905260248201527f4f776e61626c653a2063616c6c6572206973206e6f7420746865206f776e657260448201526064016104e3565b6001600160a01b0382166110025760405162461bcd60e51b815260206004820152601f60248201527f45524332303a206d696e7420746f20746865207a65726f20616464726573730060448201526064016104e3565b8060026000828254611014919061126f565b90915550506001600160a01b038216600081815260208181526040808320805486019055518481527fddf252ad1be2c89b69c2b068fc378daa952ba7f163c4a11628f55a4df523b3ef910160405180910390a35050565b600580546001600160a01b038381166001600160a01b0319831681179093556040519116919082907f8be0079c531659141344cd1fd0a4f28419497f9722a3daafe3b4186f6b6457e090600090a35050565b6001600160a01b0381168114610c0d57600080fd5b6000602082840312156110e457600080fd5b81356110ef816110bd565b9392505050565b600060208083528351808285015260005b8181101561112357858101830151858201604001528201611107565b506000604082860101526040601f19601f8301168501019250505092915050565b6000806040838503121561115757600080fd5b8235611162816110bd565b946020939093013593505050565b60008060006060848603121561118557600080fd5b8335611190816110bd565b925060208401356111a0816110bd565b929592945050506040919091013590565b600080604083850312156111c457600080fd5b82356111cf816110bd565b915060208301356111df816110bd565b809150509250929050565b6000806000606084860312156111ff57600080fd5b833561120a816110bd565b95602085013595506040909401359392505050565b600181811c9082168061123357607f821691505b60208210810361125357634e487b7160e01b600052602260045260246000fd5b50919050565b634e487b7160e01b600052601160045260246000fd5b8082018082111561043d5761043d611259565b60208082526028908201527f4f6e6c7920746865204d616e616765722063616e20706572666f726d20746869604082015267399030b1ba34b7b760c11b606082015260800190565b6000602082840312156112dc57600080fd5b5051919050565b6000602082840312156112f557600080fd5b815180151581146110ef57600080fd5b8181038181111561043d5761043d611259565b808202811582820484141761043d5761043d611259565b60008261134c57634e487b7160e01b600052601260045260246000fd5b50049056fea26469706673582212200ef000ac3e4ea8b024dead45628d1ee28f3d754862af438ba4d6a88a5abce9fb64736f6c63430008120033a2646970667358221220a01e739c40160c7a7ea786694ff8ea50219250ed015ca7d95893017ece2e05ad64736f6c63430008120033",
  "linkReferences": {},
  "deployedLinkReferences": {}
}