{
  "_format": "hh-sol-artifact-1",
  "contractName": "StakingPool",
  "sourceName": "contracts/RealEstate.sol",
  "abi": [
    {
      "inputs": [
        {
          "internalType": "address",
          "name": "_propertyToken",
          "type": "address"
        },
        {
          "internalType": "address",
          "name": "_rewardToken",
          "type": "address"
        },
        {
          "internalType": "uint256",
          "name": "_rewardPerToken",
          "type": "uint256"
        }
      ],
      "stateMutability": "nonpayable",
      "type": "constructor"
    },
    {
      "anonymous": false,
      "inputs": [
        {
          "indexed": true,
          "internalType": "address",
          "name": "previousOwner",
          "type": "address"
        },
        {
          "indexed": true,
          "internalType": "address",
          "name": "newOwner",
          "type": "address"
        }
      ],
      "name": "OwnershipTransferred",
      "type": "event"
    },
    {
      "anonymous": false,
      "inputs": [
        {
          "indexed": true,
          "internalType": "address",
          "name": "staker",
          "type": "address"
        },
        {
          "indexed": false,
          "internalType": "uint256",
          "name": "amount",
          "type": "uint256"
        }
      ],
      "name": "RewardsClaimed",
      "type": "event"
    },
    {
      "anonymous": false,
      "inputs": [
        {
          "indexed": true,
          "internalType": "address",
          "name": "staker",
          "type": "address"
        },
        {
          "indexed": false,
          "internalType": "uint256",
          "name": "amount",
          "type": "uint256"
        }
      ],
      "name": "Staked",
      "type": "event"
    },
    {
      "anonymous": false,
      "inputs": [
        {
          "indexed": true,
          "internalType": "address",
          "name": "staker",
          "type": "address"
        },
        {
          "indexed": false,
          "internalType": "uint256",
          "name": "amount",
          "type": "uint256"
        }
      ],
      "name": "Unstaked",
      "type": "event"
    },
    {
      "inputs": [],
      "name": "claimRewards",
      "outputs": [],
      "stateMutability": "nonpayable",
      "type": "function"
    },
    {
      "inputs": [],
      "name": "owner",
      "outputs": [
        {
          "internalType": "address",
          "name": "",
          "type": "address"
        }
      ],
      "stateMutability": "view",
      "type": "function"
    },
    {
      "inputs": [],
      "name": "propertyToken",
      "outputs": [
        {
          "internalType": "contract ERC20",
          "name": "",
          "type": "address"
        }
      ],
      "stateMutability": "view",
      "type": "function"
    },
    {
      "inputs": [],
      "name": "renounceOwnership",
      "outputs": [],
      "stateMutability": "nonpayable",
      "type": "function"
    },
    {
      "inputs": [],
      "name": "rewardPerToken",
      "outputs": [
        {
          "internalType": "uint256",
          "name": "",
          "type": "uint256"
        }
      ],
      "stateMutability": "view",
      "type": "function"
    },
    {
      "inputs": [],
      "name": "rewardToken",
      "outputs": [
        {
          "internalType": "contract ERC20",
          "name": "",
          "type": "address"
        }
      ],
      "stateMutability": "view",
      "type": "function"
    },
    {
      "inputs": [
        {
          "internalType": "uint256",
          "name": "_rewardPerToken",
          "type": "uint256"
        }
      ],
      "name": "setRewardPerToken",
      "outputs": [],
      "stateMutability": "nonpayable",
      "type": "function"
    },
    {
      "inputs": [
        {
          "internalType": "uint256",
          "name": "_amount",
          "type": "uint256"
        }
      ],
      "name": "stake",
      "outputs": [],
      "stateMutability": "nonpayable",
      "type": "function"
    },
    {
      "inputs": [
        {
          "internalType": "address",
          "name": "",
          "type": "address"
        }
      ],
      "name": "stakers",
      "outputs": [
        {
          "internalType": "uint256",
          "name": "stakedAmount",
          "type": "uint256"
        },
        {
          "internalType": "uint256",
          "name": "lastUpdateTime",
          "type": "uint256"
        },
        {
          "internalType": "uint256",
          "name": "pendingRewards",
          "type": "uint256"
        }
      ],
      "stateMutability": "view",
      "type": "function"
    },
    {
      "inputs": [
        {
          "internalType": "address",
          "name": "newOwner",
          "type": "address"
        }
      ],
      "name": "transferOwnership",
      "outputs": [],
      "stateMutability": "nonpayable",
      "type": "function"
    },
    {
      "inputs": [
        {
          "internalType": "uint256",
          "name": "_amount",
          "type": "uint256"
        }
      ],
      "name": "unstake",
      "outputs": [],
      "stateMutability": "nonpayable",
      "type": "function"
    },
    {
      "inputs": [
        {
          "internalType": "address",
          "name": "_reciever",
          "type": "address"
        }
      ],
      "name": "withdrawExcessEth",
      "outputs": [],
      "stateMutability": "nonpayable",
      "type": "function"
    },
    {
      "inputs": [
        {
          "internalType": "address",
          "name": "_reciever",
          "type": "address"
        },
        {
          "internalType": "contract ERC20",
          "name": "_token",
          "type": "address"
        }
      ],
      "name": "withdrawExcessToken",
      "outputs": [],
      "stateMutability": "nonpayable",
      "type": "function"
    }
  ],
  "bytecode": "0x608060405234801561001057600080fd5b50604051610c87380380610c8783398101604081905261002f916101f0565b61003833610184565b6001600160a01b0383166100935760405162461bcd60e51b815260206004820152601e60248201527f496e76616c69642070726f706572747920746f6b656e2061646472657373000060448201526064015b60405180910390fd5b6001600160a01b0382166100e95760405162461bcd60e51b815260206004820152601c60248201527f496e76616c69642072657761726420746f6b656e206164647265737300000000604482015260640161008a565b6000811161014c5760405162461bcd60e51b815260206004820152602a60248201527f5265776172642070657220746f6b656e206d7573742062652067726561746572604482015269207468616e207a65726f60b01b606482015260840161008a565b600180546001600160a01b039485166001600160a01b031991821617909155600280549390941692169190911790915560035561022c565b600080546001600160a01b038381166001600160a01b0319831681178455604051919092169283917f8be0079c531659141344cd1fd0a4f28419497f9722a3daafe3b4186f6b6457e09190a35050565b80516001600160a01b03811681146101eb57600080fd5b919050565b60008060006060848603121561020557600080fd5b61020e846101d4565b925061021c602085016101d4565b9150604084015190509250925092565b610a4c8061023b6000396000f3fe608060405234801561001057600080fd5b50600436106100cf5760003560e01c80638da5cb5b1161008c578063a694fc3a11610066578063a694fc3a146101bd578063cd3daf9d146101d0578063f2fde38b146101e7578063f7c618c1146101fa57600080fd5b80638da5cb5b1461014f5780639168ae72146101605780639e80c2c7146101aa57600080fd5b80632e17de78146100d4578063372500ab146100e957806343ae2695146100f15780634ffdfb9114610121578063715018a6146101345780637995ba901461013c575b600080fd5b6100e76100e23660046108db565b61020d565b005b6100e761038f565b600154610104906001600160a01b031681565b6040516001600160a01b0390911681526020015b60405180910390f35b6100e761012f3660046108db565b6104a1565b6100e7610511565b6100e761014a366004610909565b610525565b6000546001600160a01b0316610104565b61018f61016e366004610942565b60046020526000908152604090208054600182015460029092015490919083565b60408051938452602084019290925290820152606001610118565b6100e76101b8366004610942565b610613565b6100e76101cb3660046108db565b610654565b6101d960035481565b604051908152602001610118565b6100e76101f5366004610942565b610702565b600254610104906001600160a01b031681565b600081116102625760405162461bcd60e51b815260206004820181905260248201527f416d6f756e74206d7573742062652067726561746572207468616e207a65726f60448201526064015b60405180910390fd5b32600090815260046020526040902080548211156102c25760405162461bcd60e51b815260206004820152601a60248201527f496e73756666696369656e74207374616b656420616d6f756e740000000000006044820152606401610259565b6102cb8161077b565b60015460405163a9059cbb60e01b8152326004820152602481018490526001600160a01b039091169063a9059cbb906044016020604051808303816000875af115801561031c573d6000803e3d6000fd5b505050506040513d601f19601f820116820180604052508101906103409190610966565b50805461034d90836107f8565b815542600182015560405182815232907f0f5bb82176feb1b5e747e28471aa92156a04d9f3ab9f45f28e2d704232b93f75906020015b60405180910390a25050565b33600090815260046020526040902060028101546103e45760405162461bcd60e51b81526020600482015260126024820152714e6f2070656e64696e67207265776172647360701b6044820152606401610259565b600280549082015460405163a9059cbb60e01b815233600482015260248101919091526001600160a01b039091169063a9059cbb906044016020604051808303816000875af115801561043b573d6000803e3d6000fd5b505050506040513d601f19601f8201168201806040525081019061045f9190610966565b5060006002820181905560405190815233907ffc30cddea38e2bf4d6ea7d3f9ed3b6ad7f176419f4963bd81318067a4aee73fe9060200160405180910390a250565b6104a961080d565b6000811161050c5760405162461bcd60e51b815260206004820152602a60248201527f5265776172642070657220746f6b656e206d7573742062652067726561746572604482015269207468616e207a65726f60b01b6064820152608401610259565b600355565b61051961080d565b6105236000610867565b565b61052d61080d565b6040516370a0823160e01b81523060048201526001600160a01b0382169063a9059cbb90849083906370a0823190602401602060405180830381865afa15801561057b573d6000803e3d6000fd5b505050506040513d601f19601f8201168201806040525081019061059f9190610988565b6040516001600160e01b031960e085901b1681526001600160a01b03909216600483015260248201526044016020604051808303816000875af11580156105ea573d6000803e3d6000fd5b505050506040513d601f19601f8201168201806040525081019061060e9190610966565b505050565b61061b61080d565b6040516001600160a01b038216904780156108fc02916000818181858888f19350505050158015610650573d6000803e3d6000fd5b5050565b600081116106a45760405162461bcd60e51b815260206004820181905260248201527f416d6f756e74206d7573742062652067726561746572207468616e207a65726f6044820152606401610259565b3360009081526004602052604090206106bc8161077b565b80546106c890836108b7565b815542600182015560405182815233907f9e71bc8eea02a63969f509818f2dafb9254532904319f9dbda79b67bd34a5f3d90602001610383565b61070a61080d565b6001600160a01b03811661076f5760405162461bcd60e51b815260206004820152602660248201527f4f776e61626c653a206e6577206f776e657220697320746865207a65726f206160448201526564647265737360d01b6064820152608401610259565b61077881610867565b50565b80541561077857600181015442906000906107979083906107f8565b905060006107d7670de0b6b3a76400006107d1620151806107d16003546107cb888b600001546108c390919063ffffffff16565b906108c3565b906108cf565b60028501549091506107e990826108b7565b60028501555050600182015550565b600061080482846109b7565b90505b92915050565b6000546001600160a01b031633146105235760405162461bcd60e51b815260206004820181905260248201527f4f776e61626c653a2063616c6c6572206973206e6f7420746865206f776e65726044820152606401610259565b600080546001600160a01b038381166001600160a01b0319831681178455604051919092169283917f8be0079c531659141344cd1fd0a4f28419497f9722a3daafe3b4186f6b6457e09190a35050565b600061080482846109ca565b600061080482846109dd565b600061080482846109f4565b6000602082840312156108ed57600080fd5b5035919050565b6001600160a01b038116811461077857600080fd5b6000806040838503121561091c57600080fd5b8235610927816108f4565b91506020830135610937816108f4565b809150509250929050565b60006020828403121561095457600080fd5b813561095f816108f4565b9392505050565b60006020828403121561097857600080fd5b8151801515811461095f57600080fd5b60006020828403121561099a57600080fd5b5051919050565b634e487b7160e01b600052601160045260246000fd5b81810381811115610807576108076109a1565b80820180821115610807576108076109a1565b8082028115828204841417610807576108076109a1565b600082610a1157634e487b7160e01b600052601260045260246000fd5b50049056fea264697066735822122099f34eb8540903275f0a05a2513e874079a0099c096e635f71d4b9e2d38c41e764736f6c63430008120033",
  "linkReferences": {},
  "deployedLinkReferences": {}
}